:0403170002250000BB
:10026D001202E00526E526700205257FE87E0312C1
:10027D0002CB750C03AB26AA257D017F0112022648
:02028D0080E10E
:0602F400C2A58F80D2A715
:0802FA007F027EEFDEFEDFFC57
:0103020022D8
:0A030300C2A61202F4C2A70202FA19
:10028F00CFCDCFCECCCE1200427C007D0A120042E1
:04029F00ED2430FF1B
:0A02A300D2A61202F4C2A70202FA6A
:1002AD00AE07EEFB7A0064017004ED148009EB6477
:0E02BD00024A7009ED243F4480FF1203032221
:1002E0007F381203037F0C1203037F061203037F80
:0402F0000102030301
:0A030D00AC031202ADAF040202A31C
:06024A008B228A238924A7
:100250001202ADE4FDAB22AA23A9248D827583008E
:0C026000120003FF60061202A30D80E9EB
:01026C00226F
:0A01F500EF24FFFDEE34FFFC7F0A4B
:0801FF008E0D8F0E8C0F8D1088
:100207007F017E00E4FBEBC39510E50F6480F87473
:0E0217008098500AAC0DAD0E1200300B80E83E
:0102250022B6
:040226008A0A8B0BAA
:10022A001202ADAA0CEAFF7E00D394007480948077
:0F023A00400D1201F5AC0AAD0B12028F1A80E6CF
:010249002292
:04016E008B828A8373
:100172001202ADC3E58364809480400D7F2B12028E
:10018200A385831685821780107F2D1202A3C3E4F4
:100192009582F517E49583F516AA15EAFF7E00D33A
:1001A200940074809480400D1201F5AC16AD1712C4
:0501B200028F1A80E637
:0101B7002225
:040123008A1A8B1B8E
:100127001202ADAA1CEAD39400748094804037EA87
:1001370024FFFDE434FFFC7F107E001201FFAC1AA0
:10014700AD1BCFCDCFCECCCE120042EF540FFEC3A6
:10015700940A74809480EE5004243080022437FF80
:060167001202A31A80BF82
:01016D00226F
:0401B8008A1F8B20EF
:1001BC001202ADAA21EAFF7E00D3940074809480D1
:1001CC004026EF24FFFDEE34FFFC7F021201FFAC52
:1001DC001FAD20CFCDCFCECCCE120042EF54012498
:0801EC0030FF1202A31A80CDBE
:0101F40022E8
:1002CB00EF1FAC0670011E4C600A7D027CEFDCFE5A
:0402DB00DDFC80ECDA
:0102DF0022FC
:0300000002009764
:0C009700787FE4F6D8FD7581260200DEBB
:10000300BB010CE58229F582E5833AF583E02250B2
:1000130006E92582F8E622BBFE06E92582F8E222FC
:0D002300E58229F582E5833AF583E4932216
:10003000EF8DF0A4A8F0CF8CF0A428CE8DF0A42EE4
:02004000FE229E
:10004200BC000BBE0029EF8DF084FFADF022E4CCA2
:10005200F875F008EF2FFFEE33FEEC33FCEE9DEC6B
:10006200984005FCEE9DFE0FD5F0E9E4CEFD22EDB1
:10007200F8F5F0EE8420D21CFEADF075F008EF2FFB
:10008200FFED33FD4007985006D5F0F222C398FDEC
:050092000FD5F0EA2289
:1000A30002026DE493A3F8E493A34003F68001F204
:1000B30008DFF48029E493A3F85407240CC8C3335E
:1000C300C4540F4420C8834004F456800146F6DF2D
:1000D300E4800B0102040810204080900317E47EA3
:1000E300019360BCA3FF543F30E509541FFEE49322
:1000F300A360010ECF54C025E060A840B8E493A3E9
:10010300FAE493A3F8E493A3C8C582C8CAC583CA13
:10011300F0A3C8C582C8CAC583CADFE9DEE780BECB
:01031B0000E1
:00000001FF
