:020000040800F2
:10000000A00A002091010008CD0A00085909000843
:10001000C90A0008F10300081912000800000000D6
:10002000000000000000000000000000590C000863
:10003000F503000800000000410B0008450D000812
:10004000AB010008AB010008AB010008AB010008E0
:10005000AB010008AB010008AB010008AB010008D0
:10006000AB010008AB010008AB010008AB010008C0
:10007000AB010008AB010008AB010008AB010008B0
:10008000AB010008AB010008AB010008AB010008A0
:10009000AB010008AB010008AB010008AB01000890
:1000A000AB010008AB010008AB010008AB01000880
:1000B000AB010008B50D0008AB010008AB0100085A
:1000C000AB010008AB010008AB010008AB01000860
:1000D000AB010008AB010008610E0008DD0E00084E
:1000E000AB010008AB010008AB01000800F002F80A
:1000F00000F03FF80AA090E8000C82448344AAF183
:100100000107DA4501D100F034F8AFF2090EBAE880
:100110000F0013F0010F18BFFB1A43F0010318473B
:1001200098130000B8130000103A24BF78C878C1B3
:10013000FAD8520724BF30C830C144BF04680C60ED
:10014000704700000023002400250026103A28BF35
:1001500078C1FBD8520728BF30C148BF0B60704739
:10016000732900F0FA80002070471FB51FBD10B53D
:1001700010BD00F00DF91146FFF7F7FF01F0E3F8AD
:1001800000F02BF903B4FFF7F2FF03BC01F046F8CF
:100190000948804709480047FEE7FEE7FEE7FEE71B
:1001A000FEE7FEE7FEE7FEE7FEE7FEE70448054957
:1001B000054A064B70470000550D0008ED00000889
:1001C000A0040020A00A0020A0060020A006002015
:1001D000704700000FB4044910B503AA029800F05C
:1001E000C1F810BC5DF814FB300000200FB41CB542
:1001F000074B06AA7B4469460090059800F083F8F7
:100200000020694600F092F81CBC5DF814FB000069
:10021000350100002DE9F0410E4604460020206221
:100220002046E168884730B3252805D0D4E901216C
:100230009047206A401CF2E7E16820460027884783
:10024000050018D0A5F14100192802D820354FF437
:1002500000673246294620462760FFF781FF40B1FC
:10026000012804D0F61D26F007060836D8E7361D0B
:10027000D6E72846DAE7206ABDE8F08170B50C467B
:100280000546012A05D02878800600D5EA690023B2
:1002900002E0012305E05B1C934202D2E05C0028EF
:1002A000F9D1A869E618C01AA861286A184428621A
:1002B0002846AFF3008004E0D5E9012114F8010BD2
:1002C0009047B442F8D32846AFF3008070BD30B5F4
:1002D00005460B462A4613F8014B12F8010B08B1EC
:1002E000A042F8D01CB1002802D06D1CF1E72846CE
:1002F00030BD7047704770477047000001694A1C65
:1003000002610878704700B58FB0CDE90131002156
:10031000059105497944CDE9031011466846FFF778
:1003200079FF0FB000BD0000E5FFFFFF0A6802F88B
:10033000010B0A60704710B5436913B1AFF3008039
:1003400001E0FFF79BFF012010BD127800F12401AE
:100350000A7000224A700122EDE711684FF0FF3267
:10036000E9E70000074B70B50D467B44FFF7CBFF74
:100370000446284600F008F810B14FF0FF3070BD79
:10038000204670BD430F0000007B00F080007047E6
:10039000754600F029F8AE4605006946534620F040
:1003A0000700854618B020B5FFF700FFBDE82040E4
:1003B0004FF000064FF000074FF000084FF0000B21
:1003C00021F00701AC46ACE8C009ACE8C009ACE8D4
:1003D000C009ACE8C0098D4670470446AFF3008001
:1003E0002046FFF7CFFE0000004870473C04002085
:1003F00000BFFEE77047000010B54FF47A7102A00D
:1004000000F06EF910BD000041542B54434D51547F
:1004100054434F4E4E3D312C353030302C32343039
:100420002C312C300000000010B54FF4FA7111A0EF
:1004300000F056F9D8B113A11548FFF748FF08B1ED
:10044000022010BD13A11248FFF741FF08B103209D
:10045000F7E713A10E48FFF73AFF08B10420F0E7D1
:1004600012A10B48FFF733FF08B10520E9E7002090
:10047000E7E7000041542B4349505354415455532E
:10048000000000005354415455533A320D0A000005
:10049000380000205354415455533A330D0A00009C
:1004A0005354415455533A340D0A000053544154A7
:1004B00055533A350D0A000010B54FF4FA7106A0F5
:1004C00000F00EF930B108A10C48FFF700FF08B1A9
:1004D000012010BD0020FCE741542B54434D5154E2
:1004E0005453544154453F002B54434D515454539D
:1004F000544154453A310D0A0000000038000020F4
:1005000010B50446204600F031FF10BD10B58EB086
:10051000044624B1012C0ED0022C1ED111E011A3EF
:1005200014A217A101A8FFF761FE40F6B83101A897
:1005300000F0D6F812E04FF47A7116A000F0D0F86F
:100540000CE018A31AA21CA101A8FFF74FFE4FF45C
:100550007A7101A800F0C4F800E000BF00BF0EB03F
:1005600010BD00007875686F6E67313233343536F0
:1005700037380000696F74407875686F6E67760071
:1005800041542B43574A41503D222573222C2225AA
:100590007322000041542B54435354415254534D41
:1005A00041525400313233343536373800000000C0
:1005B000736F66744150000041542B5443534150B3
:1005C0003D222573222C22257322000010B50446FB
:1005D00024B1012C08D0022C12D10BE040F6C4113A
:1005E00009A000F07DF80CE040F6C41109A000F06D
:1005F00077F806E040F6C41109A000F071F800E0B9
:1006000000BF00BF10BD000041542B43574D4F4465
:10061000453D310041542B43574D4F44453D320039
:1006200041542B43574D4F44453D330010B508A16D
:100630000A48FFF74CFE20B909A10848FFF747FE1A
:1006400018B100F031FA002010BD0120FCE70000D5
:100650005749464920474F54204950003800002050
:10066000574946495F434F4E4E4543545F535543A8
:10067000434553530000000010B50D490DA0FFF78E
:10068000A9FD0DA10A48FFF722FE18B100F0D6F926
:10069000012010BD0DA10648FFF719FE18B100F0AA
:1006A000D5F90120F5E7C82000F0DCFD0120F0E7D6
:1006B00038000020257300007B22706F7765725F21
:1006C000737769746368223A307D00007B22706F13
:1006D0007765725F737769746368223A317D0000D1
:1006E00070B504460D460D48B0F800046FF30E00D7
:1006F0000A49A1F80004224609A10B4800F009FDAF
:10070000A8B200F0AFFD00200449B1F80014C1F315
:100710000E01024A5054012070BD00003800002034
:1007200025730D0A000000000044004000B59FB092
:1007300007A00EA310A213A1009001A8FFF756FD79
:100740004FF47A7101A8FFF7CBFF1FB000BD000086
:100750003953535575484F413572576A534A613082
:1007600068426B6150673D3D00000000616974683C
:10077000696E6B6572000000314459505053414D11
:100780004243000041542B5443444556494E464F82
:100790005345543D312C222573222C222573222CC3
:1007A000222573220000000000B59FB006A309A215
:1007B0000BA101A8FFF71AFD4FF47A7101A8FFF70A
:1007C0008FFF1FB000BD000061697468696E6B65C2
:1007D00072000000314459505053414D42430000D3
:1007E00041542B54434D5154545355423D2224748B
:1007F00068696E672F646F776E2F70726F706572A5
:1008000074792F25732F2573222C300010B54FF4E7
:100810007A7102A0FFF764FF10BD000041542B5213
:100820004553544F524500002DE9F0410246002542
:100830000026002000230024002791F803C00CF0BC
:100840000F0591F803C00CF0100CBCF1000F03D0A1
:1008500091F802C04CEA050591F800C0BCF1000F08
:1008600031D0146800202BE04FF0010C0CFA00F39B
:10087000B1F800C00CEA03069E4220D183004FF07D
:100880000F0C0CFA03F7BC4305FA03FC4CEA040412
:1008900091F803C0BCF1280F06D14FF0010C0CFAFF
:1008A00000FCC2F814C00AE091F803C0BCF1480F84
:1008B00005D14FF0010C0CFA00FCC2F810C0401C2E
:1008C0000828D1D31460B1F800C0BCF1FF0F34DDAB
:1008D000546800202EE000F1080C4FF0010808FADF
:1008E0000CF3B1F800C00CEA03069E4221D183004C
:1008F0004FF00F0C0CFA03F7BC4305FA03FC4CEA6B
:10090000040491F803C0BCF1280F05D100F1080CD4
:1009100008FA0CF8C2F8148091F803C0BCF1480F33
:1009200007D100F1080C4FF0010808FA0CF8C2F8E2
:100930001080401C0828CED35460BDE8F0810246E8
:10094000002093680B400BB1012000E000207047AD
:10095000416170470161704700BFFEE708B50121A2
:10096000442000F0FFF81820ADF8000048208DF872
:10097000030069460648FFF757FF0120ADF8000065
:1009800028208DF8030069460248FFF74DFF08BD97
:10099000001801400008014010B5044614B10120C0
:1009A000234908702248007858B310212148FFF7E6
:1009B000C6FF50B108211F48FFF7C1FF28B1012130
:1009C0001D48FFF7BCFF01281BD10A2000F04AFC9C
:1009D00000201749087010211648FFF7B0FF08B92A
:1009E000012010BD08211348FFF7A9FF08B9022014
:1009F000F7E701211048FFF7A2FF012815D10320D6
:100A0000EFE710210B48FFF79AFF01280DD10821CD
:100A10000848FFF794FF012807D101210648FFF796
:100A20008EFF10B90120024908700020D9E70000AC
:100A300034000020001801400008014010B52021BA
:100A40000148FFF787FF10BD000C014010B52021C1
:100A50000148FFF77DFF10BD000C014008B50121E2
:100A6000482000F07FF82020ADF8000003208DF82A
:100A7000020010208DF8030069460948FFF7D4FEF4
:100A800020210748FFF766FF2020ADF800006946E7
:100A90000448FFF7C9FE20210248FFF75BFF08BDAD
:100AA000000C01400018014010B520210148FFF75B
:100AB00051FF10BD0018014010B520210148FFF77B
:100AC00047FF10BD0018014000BFFEE7704700005F
:100AD00070B5002100230F22C47804B3154C24689C
:100AE00004F4E064C4F5E064210AC1F10403CA40DF
:100AF000447804FA03F184781440214309010E4C30
:100B00000678A155047804F01F050124AC4005784F
:100B10006D11AD0005F1E025C5F8004109E004784C
:100B200004F01F050124AC40044D0678761145F809
:100B3000264070BD0CED00E000E400E080E100E044
:100B40007047000029B1064AD2690243044BDA61BA
:100B500004E0034AD2698243014BDA617047000026
:100B60000010024029B1064A92690243044B9A617F
:100B700004E0034A92698243014B9A617047000086
:100B80000010024030B500210022002400232D4D2A
:100B90006D6805F00C0121B1042905D0082923D185
:100BA00005E0294D056022E0274D05601FE0254D39
:100BB0006D6805F47012234D6D6805F480340225CC
:100BC00005EB92421CB9214D554305600BE01D4DCC
:100BD0006D6805F400351DB11C4D5543056002E0FC
:100BE000194D5543056002E0174D056000BF00BF79
:100BF000144D6D6805F0F0010909154D6B5C056831
:100C0000DD4045600F4D6D6805F4E061090A104D47
:100C10006B5C4568DD4085600A4D6D6805F4605188
:100C2000C90A0B4D6B5C4568DD40C560054D6D68BC
:100C300005F44041890B074D6B5CC568B5FBF3F5C6
:100C4000056130BD0010024000127A0000093D002D
:100C50001800002028000020704710B500F002F8AE
:100C600010BD00000CB500200190009033480068D2
:100C700040F480303149086000BF3048006800F41B
:100C8000003000900198401C0190009818B901981C
:100C9000B0F5A06FF1D12948006800F4003010B120
:100CA0000120009001E0002000900098012843D12D
:100CB0002348006840F01000214908600846006899
:100CC00020F0030008600846006840F00200086059
:100CD0001A48406819494860084640684860084614
:100CE000406840F4806048600846406820F47C100A
:100CF00048600846406840F4E810486008460068CC
:100D000040F08070086000BF0C48006800F0007080
:100D10000028F9D00948406820F0030007494860DE
:100D20000846406840F00200486000BF0348406841
:100D300000F00C000828F9D10CBD000000100240A2
:100D40000020024002480068401C014908607047CA
:100D50000000002010B51348006840F00100114960
:100D6000086008464068104908400E494860084637
:100D700000680E4908400B4908600846006820F4E6
:100D8000802008600846406820F4FE0048604FF468
:100D90001F008860FFF761FF4FF0006004490860A2
:100DA00010BD0000001002400000FFF8FFFFF6FE3B
:100DB00008ED00E010B50121044800F00CF818B16E
:100DC0000121024800F004F810BD000000040040BA
:100DD000CA430282704730B5024600200023002437
:100DE000158A05EA0103958905EA010413B10CB1DE
:100DF000012000E0002030BD10B50024FFF714FBF7
:100E0000FFF75AFB1BE00020FFF7C6FD04469CB12C
:100E1000012C0CD0022C0DD0032C0CD1FFF74CFE72
:100E20000020FFF7D3FB0020FFF770FB03E0FFF784
:100E3000EDFC00E000BF02E00A2000F013FAFFF72B
:100E4000F5FB0028DFD1FFF771FCFFF7D5FA01E0D1
:100E5000FFF7AAFCFFF710FC0028F9D110BD000035
:100E600010B540F225511B4800F08FF8D8B1194851
:100E700000F046F9C4B21848B0F80004C0F30E0000
:100E800040F2FF3188420EDA1349B1F80014C1F381
:100E90000E00411C104AB2F8002461F30E020E4904
:100EA000A1F800240C5440F224410A4800F06DF8E7
:100EB00001280DD10848B0F8000420F4004000F5E6
:100EC00000400549A1F80004024800F019F9C4B235
:100ED00010BD0000004400403800002010B540F272
:100EE00025511B4800F051F8D8B1194800F008F915
:100EF000C4B21848B0F80004C0F30E0040F2FF314D
:100F000088420EDA1349B1F80014C1F30E00411CF7
:100F1000104AB2F8002461F30E020E49A1F8002431
:100F20000C5440F224410A4800F02FF801280DD15A
:100F30000848B0F8000420F4004000F500400549DE
:100F4000A1F80004024800F0DBF8C4B210BD0000B4
:100F5000004800403800002021B1828942F400524C
:100F6000828104E082894DF6FF731A4082817047C6
:100F700002460020B1F5007F00D100BF13880B406E
:100F80000BB1012000E00020704770B5024600243C
:100F900000230025002040F66A16B14200D100BFB0
:100FA000C1F3421501F01F03012606FA03F3012DD8
:100FB00002D19689334006E0022D02D1168A3340D1
:100FC00001E0968A33400C12012606FA04F41688D2
:100FD000344013B10CB1012000E0002070BDF0B529
:100FE0000346002400260025002040F66A17B94277
:100FF00000D100BF1846C1F3421401F01F060127BB
:1010000007FA06F5012C01D10C3004E0022C01D1C5
:10101000103000E014301AB107682F43076002E077
:101020000768AF430760F0BD2DE9F04786B005467D
:101030000E460024A24600BFA1460027B08900B199
:1010400000BF2F462C8A4CF6FF700440F088044302
:101050002C82AC894EF6F3100440B08831890843E5
:10106000718908430443AC81AC8A4FF6FF400440C9
:10107000B0890443AC8201A8FFF784FD1F48874272
:1010800002D1DDF810A001E0DDF80CA0A88900F481
:10109000004040B10AEBCA0000EB0A103168490079
:1010A000B0FBF1F807E00AEBCA0000EB0A10316868
:1010B0008900B0FBF1F86420B8FBF0F004012009CE
:1010C000642101FB1089A88900F4004040B132205E
:1010D00000EBC900B0FBF1F000F00700044308E0AA
:1010E000322000EB09106421B0FBF1F000F00F009A
:1010F00004432C8106B0BDE8F087000000380140B1
:1011000001468888C0F308007047C1F30802828056
:1011100070470FB470B586B006460CA8019073E016
:101120000B9800785C281CD10B98401C0B90007821
:101130006E2809D072280FD10D213046FFF7E5FF48
:101140000B98401C0B900BE00A213046FFF7DDFFA7
:101150000B98401C0B9003E00B98401C0B9000BFB9
:101160004BE00B980078252840D10B98401C0B9041
:101170000078642818D0732833D1019810C80190E2
:101180000BE021783046FFF7C0FF00BF80213046DA
:10119000FFF7EEFE0028F9D0641C20780028F0D17B
:1011A0000B98401C0B9020E0019820C801900A2267
:1011B00002A9284600F096F802AC0BE021783046F0
:1011C000FFF7A3FF00BF80213046FFF7D1FE0028C4
:1011D000F9D0641C20780028F0D10B98401C0B90AB
:1011E00003E00B98401C0B9000BF06E00B9810F832
:1011F000011B0B903046FFF788FF00BF802130466F
:10120000FFF7B6FE0028F9D00B980078002887D1A8
:1012100006B070BC5DF814FB00BFFEE700BF70476E
:101220006FF004004FF0E02108610A4800680A49A5
:10123000B0FBF1F0094908700846007800EB400166
:10124000C1EBC0104FF6FF7101EAC00004490880ED
:10125000704700000400002000127A002C000020DB
:101260002E0000200146114A12884A434FF0E02325
:101270005A6100229A611A46126942F001021A610B
:1012800000BF4FF0E022106900F001021AB100F433
:101290008032002AF5D04FF0E022126922F00102DC
:1012A0004FF0E0231A6100229A6170472E0000205F
:1012B00070B504460D4600BF80210948FFF758FE6F
:1012C0000028F9D0E1B20648FFF71FFF00BF402118
:1012D0000348FFF74DFE0028F9D0204670BD0000FE
:1012E00000480040F0B503460D4616460027294643
:1012F0000A2E03D0002008702846F0BD33B93020F4
:1013000001F8010B002008702846F6E7002B03DAED
:101310002D2001F8010B5B4242F210720DE093FBAD
:10132000F2F404B937B104F1300001F8010B04FB09
:10133000123301270A2092FBF0F2002AEFDC002092
:1013400008702846D9E7FFF76BFFFFF787FB4FF4DC
:10135000E13000F05DF84FF4E130FFF7D1F8FFF72E
:10136000FDFA01E0FFF748FDFCE7000010B586B08C
:10137000044601214804FFF7E5FB01210420FFF7A3
:10138000F1FB0420ADF8040003208DF806001820BE
:101390008DF8070001A91C48FFF746FA0820ADF8B0
:1013A000040004208DF8070001A91748FFF73CFA54
:1013B00026208DF8000000208DF801008DF8020035
:1013C00001208DF803006846FFF782FB029400209D
:1013D000ADF80C00ADF80E00ADF81000ADF814003B
:1013E0000C20ADF8120002A90848FFF71DFE0122EB
:1013F00040F225510548FFF7F2FD01210348FFF7B0
:10140000ABFD06B010BD00000008014000440040E4
:1014100010B586B0044601218804FFF793FB012133
:101420000820FFF79FFB4FF48060ADF81400032005
:101430008DF8160018208DF8170005A91C48FFF735
:10144000F3F94FF40060ADF8140004208DF8170094
:1014500005A91748FFF7E8F927208DF800000020BC
:101460008DF801008DF8020001208DF80300684618
:10147000FFF72EFB01940020ADF80800ADF80A003C
:10148000ADF80C00ADF810000C20ADF80E0001A96D
:101490000848FFF7C9FD012240F225510548FFF732
:1014A0009EFD01210348FFF757FD06B010BD000067
:1014B000000C014000480040D81400080000002043
:1014C000380000002801000810150008380000202E
:1014D000680A0000440100080000000000A24A045D
:1014E00000000000000000000102030406070809D4
:1014F00000000000010203040102030406070809BA
:1015000002040608000000000000000001000000C6
:04000005080000ED02
:00000001FF
