:020000040800F2
:10000000980A002089010008C10800088B07000831
:10001000BD080008750300088911000800000000F1
:100020000000000000000000000000004D0A000871
:10003000790300080000000035090008390B0008AA
:10004000A3010008A3010008A3010008A301000800
:10005000A3010008A3010008A3010008A3010008F0
:10006000A3010008A3010008A3010008A3010008E0
:10007000A3010008A3010008A3010008A3010008D0
:10008000A3010008A3010008A3010008A3010008C0
:10009000A3010008A3010008A3010008A3010008B0
:1000A000A3010008A3010008A3010008A3010008A0
:1000B000A3010008A90B0008A3010008A301000880
:1000C000A3010008A3010008A3010008A301000880
:1000D000A3010008A3010008050E0008810E000816
:1000E000A3010008A3010008A301000800F002F822
:1000F00000F03AF80AA090E8000C82448344AAF188
:100100000107DA4501D100F02FF8AFF2090EBAE885
:100110000F0013F0010F18BFFB1A43F0010318473B
:100120004413000064130000103A24BF78C878C15B
:10013000FAD8520724BF30C830C144BF04680C60ED
:10014000704700000023002400250026103A28BF35
:1001500078C1FBD8520728BF30C148BF0B60704739
:100160001FB51FBD10B510BD00F0D4F81146FFF744
:10017000F7FF01F087F800F0F2F803B4FFF7F2FFA1
:1001800003BC01F003F80000094880470948004714
:10019000FEE7FEE7FEE7FEE7FEE7FEE7FEE7FEE737
:1001A000FEE7FEE704480549054A064B7047000094
:1001B000490B0008ED00000898040020980A002070
:1001C0009806002098060020704700000FB41CB568
:1001D000074B06AA7B4469460090059800F047F853
:1001E0000020694600F056F81CBC5DF814FB0000C6
:1001F000BD00000030B505460B462A4613F8014BFA
:1002000012F8010B08B1A042F8D01CB1002802D0AE
:100210006D1CF1E7284630BD4FF000020429C0F004
:10022000128010F0030C00F03C80CCF1040CBCF107
:10023000020F18BF00F8012BA8BF20F8022BA1EB7A
:100240000C0100F02EB85FEAC17C24BF00F8012B3E
:1002500000F8012B48BF00F8012B7047704770472A
:100260007047704701694A1C02610878704700B501
:100270008FB0CDE901310021059105497944CDE9DF
:1002800003101146684600F031F80FB000BD0000C1
:10029000E5FFFFFF0A6802F8010B0A6070474FF0A4
:1002A000000200B5134694469646203922BFA0E8C6
:1002B0000C50A0E80C50B1F12001BFF4F7AF0907D2
:1002C00028BFA0E80C5048BF0CC05DF804EB8900C3
:1002D00028BF40F8042B08BF704748BF20F8022B06
:1002E00011F0804F18BF00F8012B70472DE9F04145
:1002F00006460024D6E90170F5688046304603E0E2
:100300004146B847641C3046A8470028F8D120462B
:10031000BDE8F081754600F029F8AE460500694653
:10032000534620F00700854618B020B5FFF73AFF86
:10033000BDE820404FF000064FF000074FF00008E6
:100340004FF0000B21F00701AC46ACE8C009ACE867
:10035000C009ACE8C009ACE8C0098D467047044646
:10036000AFF300802046FFF708FF00000048704709
:100370003804002000BFFEE77047000010B54FF4BE
:100380007A7102A000F090F810BD000041542B5289
:100390004553544F5245000010B50446204600F026
:1003A000BBFF10BD10B52021014800F0ECF910BDD5
:1003B0000018014010B54FF47A7104A000F074F8F1
:1003C0002021054800F0DDF910BD000041542B52FA
:1003D00045424F4F540000000018014000B585B061
:1003E00004A16846FFF7F2FE6421684600F05CF85D
:1003F00005B000BD41542B524543564A534F4E0061
:1004000010B505A10848FFF7F5FE18B1FFF7CAFFC0
:10041000002010BD0120FCE7434C4F554420434FC2
:100420004E4E4543544544003400002010B512A1FF
:100430001648FFF7DFFE30B14FF42F71144800F07B
:100440008CFC012010BD13A11048FFF7D3FE28B18A
:1004500000210F4800F081FC0120F3E70B4800F079
:100460002FFF0446601C08B90120EBE7A1B2084841
:1004700000F073FC0120E5E77B224C696768745348
:100480007769746368223A317D00000034000020EF
:10049000000400407B224C69676874537769746379
:1004A00068223A307D00000070B504460D460B48C6
:1004B000B0F800046FF30E000849A1F800044FF4EF
:1004C00080610648FFF7A8FE224605A1064800F015
:1004D000D8FDA8B200F07EFE70BD00003400002000
:1004E00025730D0A000000000044004008B50020FC
:1004F000009000F029F800F03BF818E0002000F030
:1005000065F900909DF8000070B19DF80000022888
:1005100006D0032807D1FFF74DFF00F03DF802E0B9
:10052000FFF72CFF00BF02E00A2000F053FEFFF7A8
:1005300067FF0028E2D101E0FFF750FFFFF776FFE9
:100540000028F9D108BD000000B585B005A16846B6
:10055000FFF73CFE4FF47A716846FFF7A5FF05B040
:1005600000BD000041542B4745544D41430000005D
:1005700000B585B005A16846FFF728FE4FF47A71F3
:100580006846FFF791FF05B000BD000041542B56AF
:10059000455253494F4E000000B585B005A168464D
:1005A000FFF714FE4FF47A716846FFF77DFF05B040
:1005B00000BD000041542B414C49534D415254431E
:1005C0004F4E4649470000002DE9F0410246002504
:1005D0000026002000230024002791F803C00CF01F
:1005E0000F0591F803C00CF0100CBCF1000F03D004
:1005F00091F802C04CEA050591F800C0BCF1000F6B
:1006000031D0146800202BE04FF0010C0CFA00F3FD
:10061000B1F800C00CEA03069E4220D183004FF0DF
:100620000F0C0CFA03F7BC4305FA03FC4CEA040474
:1006300091F803C0BCF1280F06D14FF0010C0CFA61
:1006400000FCC2F814C00AE091F803C0BCF1480FE6
:1006500005D14FF0010C0CFA00FCC2F810C0401C90
:100660000828D1D31460B1F800C0BCF1FF0F34DD0D
:10067000546800202EE000F1080C4FF0010808FA41
:100680000CF3B1F800C00CEA03069E4221D18300AE
:100690004FF00F0C0CFA03F7BC4305FA03FC4CEACD
:1006A000040491F803C0BCF1280F05D100F1080C37
:1006B00008FA0CF8C2F8148091F803C0BCF1480F96
:1006C00007D100F1080C4FF0010808FA0CF8C2F845
:1006D0001080401C0828CED35460BDE8F081000093
:1006E000F0B50A46002300240021002500F0004652
:1006F000B6F1004F02D11D4EF16901E01B4E716849
:10070000C0F3034583B200F44016B6F5401F08D18C
:1007100021F07061154E766826F07066134F7E608A
:1007200012E000F48016B6F5801F06D1032606FA03
:1007300005F4A14341F0706106E0460D360103FA6D
:1007400006F6B14341F0706122B1460D360103FA5D
:1007500006F6314300F00046B6F1004F02D1034ED9
:10076000F16101E0014E7160F0BD00000000014048
:100770000246002093680B400BB1012000E00020EE
:100780007047416170470161704700BFFEE700009C
:1007900008B50121442000F0DFF81820ADF8000072
:1007A00048208DF8030069460648FFF70DFF012039
:1007B000ADF8000028208DF8030069460248FFF7D5
:1007C00003FF08BD001801400008014010B50446B1
:1007D00014B10120234908702248007858B3102131
:1007E0002148FFF7C5FF50B108211F48FFF7C0FFA0
:1007F00028B101211D48FFF7BBFF01281BD10A20AA
:1008000000F0E8FC00201749087010211648FFF797
:10081000AFFF08B9012010BD08211348FFF7A8FF5A
:1008200008B90220F7E701211048FFF7A1FF0128CE
:1008300015D10320EFE710210B48FFF799FF01289E
:100840000DD108210848FFF793FF012807D10121A6
:100850000648FFF78DFF10B90120024908700020FB
:10086000D9E70000300000200018014000080140D6
:1008700008B50121482000F06FF82020ADF80000F5
:1008800003208DF8020010208DF803006946094806
:10089000FFF79AFE20210748FFF775FF2020ADF8EB
:1008A000000069460448FFF78FFE20210248FFF749
:1008B0006AFF08BD000C01400018014000BFFEE7C0
:1008C0007047000070B5002100230F22C47804B3E4
:1008D000154C246804F4E064C4F5E064210AC1F115
:1008E0000403CA40447804FA03F184781440214395
:1008F00009010E4C0678A155047804F01F05012467
:10090000AC4005786D11AD0005F1E025C5F800415A
:1009100009E0047804F01F050124AC40044D06787A
:10092000761145F8264070BD0CED00E000E400E0D3
:1009300080E100E07047000029B1064AD269024315
:10094000044BDA6104E0034AD2698243014BDA6165
:10095000704700000010024029B1064A9269024324
:10096000044B9A6104E0034A92698243014B9A6105
:10097000704700000010024030B500210022002422
:1009800000232D4D6D6805F00C0121B1042905D01F
:10099000082923D105E0294D056022E0274D056097
:1009A0001FE0254D6D6805F47012234D6D6805F448
:1009B0008034022505EB92421CB9214D5543056058
:1009C0000BE01D4D6D6805F400351DB11C4D554300
:1009D000056002E0194D5543056002E0174D0560C2
:1009E00000BF00BF144D6D6805F0F0010909154DF9
:1009F0006B5C0568DD4045600F4D6D6805F4E06196
:100A0000090A104D6B5C4568DD4085600A4D6D68D4
:100A100005F46051C90A0B4D6B5C4568DD40C5604B
:100A2000054D6D6805F44041890B074D6B5CC56849
:100A3000B5FBF3F5056130BD0010024000127A00ED
:100A400000093D001800002028000020704710B564
:100A500000F002F810BD00000CB5002001900090DD
:100A60003348006840F480303149086000BF3048A6
:100A7000006800F4003000900198401C019000983C
:100A800018B90198B0F5A06FF1D12948006800F4B9
:100A9000003010B10120009001E00020009000988B
:100AA000012843D12348006840F010002149086024
:100AB0000846006820F0030008600846006840F01F
:100AC000020008601A4840681949486008464068B2
:100AD00048600846406840F48060486008464068C6
:100AE00020F47C1048600846406840F4E8104860F4
:100AF0000846006840F08070086000BF0C4800683D
:100B000000F000700028F9D00948406820F0030088
:100B1000074948600846406840F00200486000BF4E
:100B20000348406800F00C000828F9D10CBD000013
:100B3000001002400020024002480068401C0149A9
:100B4000086070470000002010B51348006840F0AE
:100B500001001149086008464068104908400E49E4
:100B60004860084600680E4908400B49086008467E
:100B7000006820F4802008600846406820F4FE00E9
:100B800048604FF41F008860FFF761FF4FF000607E
:100B90000449086010BD0000001002400000FFF88A
:100BA000FFFFF6FE08ED00E010B50121044800F05B
:100BB00064F818B10121024800F050F810BD00009F
:100BC0000004004030B589B005460C4601210220E2
:100BD000FFF7B2FE01210920FFF7BEFE01211C48EC
:100BE000FFF77EFD2020ADF8200018208DF82300AF
:100BF00003208DF8220008A91648FFF7E5FC202104
:100C00001448FFF7C0FDADF81850ADF814400020AF
:100C1000ADF81A00ADF8160005A90F4800F0A0F8CD
:100C20007020ADF804000120ADF806000020ADF8FA
:100C30000C0001A9084800F031F80821064800F02E
:100C40007FF80121044800F00CF809B030BD000025
:100C500000081A00000C014000040040CA43028250
:100C6000704721B1028842F00102028004E002884C
:100C70004FF6FE731A400280704730B502460020DE
:100C800000230024158A05EA0103958905EA010479
:100C900013B10CB1012000E0002030BD70B500247C
:100CA00000220023058C4FF6EF7635400584028C38
:100CB0008388048B48F6FF752C404FF6FF452C4087
:100CC0000D884FF6FF7606EA05252C434FF6DF75B3
:100CD0002A400D8906EA05152A434D8806EA0515BE
:100CE0002A43154DA84202D0144DA8421DD14FF6FB
:100CF0007F752A404D894FF6FF7606EA05152A438F
:100D00004FF6BF752A408D8806EA05152A434FF62F
:100D1000FF352B404FF2FF752B408D8906EA850584
:100D20002B43CD8906EA85052B4383800483CD8838
:100D30000587028470BD0000002C01400034014092
:100D40000A460021018B4FF2FF7319404FF6FF73E3
:100D500003EA0223194301837047018770470000AB
:100D6000002202881D4B98420ED01D4B98420BD09A
:100D7000B0F1804F08D01B4B984205D01A4B9842D7
:100D800002D01A4B984204D14FF68F731A404B8809
:100D90001A43174B984207D0164B984204D04FF68F
:100DA000FF431A40CB881A4302808B8883850B88C7
:100DB00003850A4B98420BD0094B984208D00E4B42
:100DC000984205D00D4B984202D00D4B984201D16C
:100DD0000B7A03860123838270470000002C0140B8
:100DE000003401400004004000080040000C0040B6
:100DF0000010004000140040004001400044014049
:100E00000048014010B540F225511B4800F075F82C
:100E1000D8B1194800F02CF9C4B21848B0F8000451
:100E2000C0F30E0040F2FF3188420EDA1349B1F8E8
:100E30000014C1F30E00411C104AB2F8002461F303
:100E40000E020E49A1F800240C5440F224410A4835
:100E500000F053F801280DD10848B0F8000420F440
:100E6000004000F500400549A1F80004024800F0E8
:100E7000FFF8C4B210BD0000004400403400002060
:100E800010B540F225510E4800F037F810B10C486B
:100E900000F0EEF840F22441094800F02EF8012855
:100EA0000CD10848B0F8000420F4004000F50040E0
:100EB0000449A1F80004024800F0DAF810BD00006F
:100EC000004800403400002021B1828942F40052E1
:100ED000828104E082894DF6FF731A408281704757
:100EE00002460020B1F5007F00D100BF13880B40FF
:100EF0000BB1012000E00020704770B502460024CD
:100F000000230025002040F66A16B14200D100BF40
:100F1000C1F3421501F01F03012606FA03F3012D68
:100F200002D19689334006E0022D02D1168A334061
:100F300001E0968A33400C12012606FA04F4168862
:100F4000344013B10CB1012000E0002070BDF0B5B9
:100F50000346002400260025002040F66A17B94207
:100F600000D100BF1846C1F3421401F01F0601274B
:100F700007FA06F5012C01D10C3004E0022C01D156
:100F8000103000E014301AB107682F43076002E008
:100F90000768AF430760F0BD2DE9F04786B005460E
:100FA0000E460024A24600BFA1460027B08900B12A
:100FB00000BF2F462C8A4CF6FF700440F088044393
:100FC0002C82AC894EF6F3100440B0883189084376
:100FD000718908430443AC81AC8A4FF6FF4004405A
:100FE000B0890443AC8201A8FFF7C6FC1F488742C2
:100FF00002D1DDF810A001E0DDF80CA0A88900F412
:10100000004040B10AEBCA0000EB0A103168490009
:10101000B0FBF1F807E00AEBCA0000EB0A103168F8
:101020008900B0FBF1F86420B8FBF0F0040120095E
:10103000642101FB1089A88900F4004040B13220EE
:1010400000EBC900B0FBF1F000F00700044308E03A
:10105000322000EB09106421B0FBF1F000F00F002A
:1010600004432C8106B0BDE8F08700000038014041
:1010700001468888C0F308007047C1F308028280E7
:1010800070470FB470B586B006460CA8019073E0A7
:101090000B9800785C281CD10B98401C0B900078B2
:1010A0006E2809D072280FD10D213046FFF7E5FFD9
:1010B0000B98401C0B900BE00A213046FFF7DDFF38
:1010C0000B98401C0B9003E00B98401C0B9000BF4A
:1010D0004BE00B980078252840D10B98401C0B90D2
:1010E0000078642818D0732833D1019810C8019073
:1010F0000BE021783046FFF7C0FF00BF802130466B
:10110000FFF7EEFE0028F9D0641C20780028F0D10B
:101110000B98401C0B9020E0019820C801900A22F7
:1011200002A9284600F07CF802AC0BE0217830469A
:10113000FFF7A3FF00BF80213046FFF7D1FE002854
:10114000F9D0641C20780028F0D10B98401C0B903B
:1011500003E00B98401C0B9000BF06E00B9810F8C2
:10116000011B0B903046FFF788FF00BF80213046FF
:10117000FFF7B6FE0028F9D00B980078002887D139
:1011800006B070BC5DF814FB00BFFEE700BF7047FF
:101190006FF004004FF0E02108610A4800680A4936
:1011A000B0FBF1F0094908700846007800EB4001F7
:1011B000C1EBC0104FF6FF7101EAC000044908807E
:1011C000704700000400002000127A002C0000206C
:1011D0002E0000200146114A12884A434FF0E023B6
:1011E0005A6100229A611A46126942F001021A619C
:1011F00000BF4FF0E022106900F001021AB100F4C4
:101200008032002AF5D04FF0E022126922F001026C
:101210004FF0E0231A6100229A6170472E000020EF
:10122000F0B503460D461646002729460A2E03D080
:10123000002008702846F0BD33B9302001F8010BBA
:10124000002008702846F6E7002B03DA2D2001F86D
:10125000010B5B4242F210720DE093FBF2F404B911
:1012600037B104F1300001F8010B04FB1233012700
:101270000A2092FBF0F2002AEFDC002008702846DA
:10128000D9E70000FFF784FFFFF7F2FA4FF4E130EF
:1012900000F094F84FF4E130FFF77EF8FFF778FAAA
:1012A000002140F21F30FFF78DFC00210348FFF7BB
:1012B00054FD01E0FFF71AF9FCE7000000040040CC
:1012C0002DE9F0410446002611A12046FEF792FFC9
:1012D000054615B9701EBDE8F0816C1C0DA12046B5
:1012E000FEF788FF054615B94FF0FF30F3E72F1BD7
:1012F00007E0207806EB860100EB4100A0F1300604
:10130000641C3800A7F10107F3D13046E3E7000081
:101310003A0000007D00000010B586B004460121AF
:101320004804FFF709FB01210420FFF715FB042007
:10133000ADF8040003208DF8060018208DF8070092
:1013400001A91C48FFF740F90820ADF8040004206B
:101350008DF8070001A91748FFF736F926208DF808
:10136000000000208DF801008DF8020001208DF8AA
:1013700003006846FFF7A6FA02940020ADF80C00BF
:10138000ADF80E00ADF81000ADF814000C20ADF86B
:10139000120002A90848FFF7FFFD012240F2255183
:1013A0000548FFF7D4FD01210348FFF78DFD06B086
:1013B00010BD0000000801400044004010B586B098
:1013C000044601218804FFF7B7FA01210820FFF73E
:1013D000C3FA4FF48060ADF8140003208DF81600B6
:1013E00018208DF8170005A91C48FFF7EDF84FF4F9
:1013F0000060ADF8140004208DF8170005A9174807
:10140000FFF7E2F827208DF8000000208DF801009A
:101410008DF8020001208DF803006846FFF752FAAC
:1014200001940020ADF80800ADF80A00ADF80C00FA
:10143000ADF810000C20ADF80E0001A90848FFF728
:10144000ABFD012240F225510548FFF780FD012147
:101450000348FFF739FD06B010BD0000000C014045
:101460000048004084140008000000203400000000
:1014700028010008B814000834000020640A0000A5
:10148000440100080000000000A24A04000000001F
:101490000000000001020304060708090000000024
:1014A00001020304010203040607080902040608F6
:0814B000000000000100000033
:04000005080000ED02
:00000001FF
